:020000040800F2
:1000000098340120F9020008310500083305000882
:10001000370500083B0500083F0500080000000008
:10002000000000000000000000000000390200088D
:1000300043050008000000009502000881760008D2
:100040001303000813030008130300081303000838
:100050001303000813030008953800081303000871
:1000600013030008F12E0008252F000813030008D1
:100070001303000813030008130300081303000808
:1000800013030008130300081303000813030008F8
:10009000130300081303000813030008592F000876
:1000A00013030008130300081303000813030008D8
:1000B00013030008130300081303000813030008C8
:1000C00013030008130300081303000813030008B8
:1000D0001303000813030008C326000813030008D5
:1000E0001303000813030008130300081303000898
:1000F0001303000813030008130300081303000888
:100100001303000813030008130300081303000877
:10011000A1270008130300081303000813030008B5
:100120001303000813030008130300081303000857
:100130001303000813030008130300081303000847
:100140001303000813030008130300081303000837
:100150001303000813030008130300081303000827
:100160001303000813030008130300081303000817
:100170001303000813030008130300081303000807
:10018000130300081303000800F002F800F045F81C
:100190000AA090E8000C82448344AAF10107DA45E2
:1001A00001D100F03AF8AFF2090EBAE80F0013F0EF
:1001B000010F18BFFB1A43F00103184738860000EF
:1001C00058860000103A24BF78C878C1FAD8520780
:1001D00024BF30C830C144BF04680C6070470000C1
:1001E0000023002400250026103A28BF78C1FBD840
:1001F000520728BF30C148BF0B6070471FB507F0DA
:10020000FCFF07F0A9FE04000020002107F0D2FE49
:10021000401C60601FBD10B510BD07F078FE114690
:10022000FFF7ECFF00F0F2F807F0A8FE03B4FFF7C9
:10023000F2FF03BC07F0ACFE2C4B19680868B0E86D
:10024000F04F80F30988BFF36F8F4FF0000080F309
:10025000118870470000000008480068006880F3BB
:1002600008884FF0000080F3148862B661B6BFF3CF
:100270004F8FBFF36F8F00DF00BF00BF08ED00E0BE
:10028000DFF80C00016841F470010160704700BFA5
:1002900088ED00E0EFF30980BFF36F8F134B1A680E
:1002A0001EF0100F08BF20ED108A20E9F04F1060FB
:1002B00009B44FF0500080F31188BFF34F8FBFF3A4
:1002C0006F8F05F057F94FF0000080F3118809BCDB
:1002D00019680868B0E8F04F1EF0100F08BFB0ECC6
:1002E000108A80F30988BFF36F8F70477800002071
:1002F000EFF3058070470000094880470948004730
:10030000FEE7FEE7FEE7FEE7FEE7FEE7FEE7FEE7C5
:10031000FEE7FEE704480549054A064B7047000022
:100320002106000889010008982E01209834012038
:10033000983001209830012067E05A480078012861
:1003400019D159A20121084603F031F9002055497D
:1003500008705948007801280AD104235748B0F999
:1003600000200221084603F062F90020524908707B
:100370000A2004F067FF5248007801280AD1514949
:10038000087000205049087050A20121032003F09A
:100390000EF911E04A48007802280DD100204949A1
:1003A00008700120484908704AA20121032003F087
:1003B000FEF800204249087048480078012808D11A
:1003C00012204749088047A20721032003F0EFF8D5
:1003D0001BE042480078022808D1192040490880D3
:1003E00042A20721032003F0E2F80EE03B48007828
:1003F00003280AD120203A4908803EA20721032081
:1004000003F0D5F800203549087096E71CB54FF485
:10041000E13001F095FF4FF4E13002F022F84FF4A3
:10042000E13002F0AFF8542001F0F8FE02F002FAD9
:1004300040F2E731532002F07FFA40F2E7315320D7
:1004400002F0E2FA02F0B4FC02F000FD02F04AFB16
:1004500003F069F903F0BCF903F0D4F9002003219B
:1004600003468022CDE9001024A1AFF2331004F03E
:10047000C4FB0020042103460A02CDE9001022A19A
:10048000254804F0BAFB0020042103460A02CDE906
:10049000001022A1254804F0B0FB05F094FA0020DA
:1004A0001CBD0000280000205541525432205258F3
:1004B0003A204F4B00000000420000204000002086
:1004C000380000203A0000203B0000206C65667474
:1004D00000000000726967687400000039000020A5
:1004E00044000020206C6F7700000000206D6964DC
:1004F0000000000020686967680000004F4C454418
:100500005F53686F770000007461736B5F676F5FA4
:1005100074726163650000009F3100087461736B41
:100520005F6261636B5F747261636500A132000892
:10053000704700BFFEE700BFFEE700BFFEE700BF59
:10054000FEE770470CB500200190009076480068E7
:1005500040F480307449086000BF7348006800F4BC
:10056000003000900198401C0190009818B9019843
:10057000B0F5A04FF1D16C48006800F4003010B124
:100580000120009001E0002000900098012846D151
:1005900065484030006840F0805063494031086051
:1005A0006248006840F44040604908605E48083096
:1005B00000685D49083108600846006840F4004062
:1005C00008600846006840F4A05008605848091FB9
:1005D0000860081F006840F08070091F086000BFB5
:1005E0005148006800F000700028F9D040F2057012
:1005F000504908604C480830006820F003004A4920
:10060000083108600846006840F00200086000BF3A
:1006100045480830006800F00C000828F8D10CBDEF
:1006200010B54548006840F47000434908603E48F2
:10063000006840F001003C49086000203A49083158
:100640000860394800683D490840374908603C481F
:10065000091D0860081F006820F48020091F086039
:10066000002031490C310860FFF76CFF4FF000604B
:1006700031498039086010BD70B500200022022386
:1006800000240221284D08352D6805F00C0020B10A
:10069000042806D0082834D107E02A4D2A4E3560B8
:1006A00033E02A4D284E35602FE01F4D2D1D2D685B
:1006B000C5F380541C4D2D1D2D6805F03F0154B12C
:1006C000224DB5FBF1F5184E361D3668C6F3881677
:1006D00005FB06F209E01B4DB5FBF1F5124E361D88
:1006E0003668C6F3881605FB06F20F4D2D1D2D68E2
:1006F000C5F301456D1C6B00B2FBF3F5124E35607E
:1007000003E0104D104E356000BF00BF064D0835A8
:100710002D68C5F303150E4E705D0B4D2D68C54059
:10072000094E356070BD0000003802400070004086
:1007300008544007003C024088ED00E0FFFFF6FE51
:10074000103000240024F4000000002000127A0081
:100750000400002032490143324A1160704770B5ED
:10076000002100230F22C4781CB32E4C246804F40B
:10077000E064C4F5E064C4F30721C1F10404E3B20A
:100780000A4144789C40E1B28478144021430C072C
:10079000210E254C05786155047804F01F050124CD
:1007A000AC4005786D11AD0005F1E025C5F80041BC
:1007B00009E0047804F01F050124AC401B4D0678C5
:1007C000761145F8264070BD194A0A400243154B80
:1007D0001B1F1A60704739B1124A121D126802437A
:1007E000104B1B1D1A6006E00E4A121D1268824350
:1007F0000C4B1B1D1A607047042808D14FF0E021F4
:10080000096941F004014FF0E022116107E04FF067
:10081000E021096921F004014FF0E02211617047E5
:100820000000FA050CED00E000E400E080E100E0EB
:1008300080FFFF1F10B504469848844208D101216B
:10084000084600F086FB0021012000F082FB76E0E4
:100850009348844208D10121022000F07AFB002154
:10086000022000F076FB6AE08E48844208D1012124
:10087000042000F06EFB0021042000F06AFB5EE023
:100880008948844208D10121082000F062FB002140
:10089000082000F05EFB52E08448844208D1012128
:1008A000102000F056FB0021102000F052FB46E023
:1008B0007F48844208D10121202000F04AFB00211A
:1008C000202000F046FB3AE07A48844208D101211A
:1008D000402000F03EFB0021402000F03AFB2EE0DB
:1008E0007548844208D10121802000F032FB0021AC
:1008F000802000F02EFB22E07048844208D10121C4
:10090000801500F026FB0021A01500F022FB16E068
:100910006B48844208D10121401500F01AFB0021E8
:10092000601500F016FB0AE06648844207D10121F9
:10093000001500F00EFB0021201500F00AFB10BD91
:10094000F0B50A4600210023002400BF3DE0012548
:1009500005FA01F3156805EA03049C4234D10568E1
:100960004F000326BE40B543056015794E00B540E3
:100970000668354305601579012D02D01579022DE1
:1009800016D185684F000326BE40B5438560557972
:100990004E00B540866835438560456801268E4027
:1009A000B5434560456896798E40B6B2354345609B
:1009B000C5684F000326BE40B543C560D5794E00DB
:1009C000B540C6683543C560491C1029BFD3F0BD8A
:1009D0004FF6FF7101600021017141718171C17198
:1009E000704708B54FF480320092009A0A43009293
:1009F000009AC261C161009AC261C2690092C26973
:100A0000009208BD0246002013690B400BB1012083
:100A100000E0002070470146086980B27047024636
:100A2000002053690B400BB1012000E0002070470B
:100A30000146486980B2704701837047418370471F
:100A40000AB1018300E04183704741617047426908
:100A50004A4042617047F0B5002300244D07ED0E77
:100A600002FA05F3CE1000F1200555F826504E0786
:100A7000F70E0F26BE40B543CF1000F1200646F812
:100A80002750CE1000F1200555F8265045EA030402
:100A9000CE1000F1200545F82640F0BD00000240D0
:100AA0000004024000080240000C02400010024016
:100AB0000014024000180240001C024000200240C6
:100AC0000024024000280240F948006840F001007C
:100AD000F74908600020F64908310860F4480068CA
:100AE000F4490840F2490860F348091D0860F348DA
:100AF000EF4984310860F0481038091D0860EC485F
:100B0000006820F48020EA4908600020E8490C31A0
:100B10000860E7498C31086070470021E44A921C64
:100B2000117011460870704710B50146002200236D
:100B300000204A11012A02D1DD4C236808E0022A74
:100B400003D1DB4C7034236802E0D94C7434236841
:100B500001F01F02012494401C400CB1012000E070
:100B6000002010BD38B5002000900024002500BFF3
:100B70003120FFF7D9FF05460098401C00900098EF
:100B8000B0F5A04F01D0002DF2D03120FFF7CCFFFF
:100B900008B1012400E00024204638BD01460020B1
:100BA000C34A106820F0F80040EAC10010607047A6
:100BB000C349086070470021BD4A7032117011703E
:100BC000012802D004280AD104E00121B84A703279
:100BD000117005E00521B64A7032117000E000BFC7
:100BE00000BF7047B7490860704770B5049C41EA80
:100BF00082150126C6EB530645EA0645054345EA3C
:100C00000465AB4E361D356070BDAD490866704752
:100C1000820142EA0172A64B84331A607047A849E8
:100C20008866704710B5830143EA016343EA0273A3
:100C30009F4C8834236010BDA14908677047A049C4
:100C4000C864704702460020994B0833186820F0AA
:100C5000EC6042EA01031843954B08331860704773
:100C600002460020924B0833186820F0784042EA90
:100C7000010318438E4B083318607047014600206B
:100C80008B4A0832106820F0030008431060704758
:100C900087480830006800F00C00704701460020CB
:100CA000834A0832106820F0F00008431060704753
:100CB000014600207E4A0832106820F4E0500843C4
:100CC0001060704701460020794A0832106820F40D
:100CD000604040EAC10010607047F0B5002100227A
:100CE0000024022500260223714F08373F6807F0D1
:100CF0000C0121B1042905D0082937D105E0724F34
:100D0000076036E0714F076033E0694F3F1D3F6871
:100D1000C7F38056664F3F1D3F6807F03F036EB133
:100D20006A4FB7FBF3F7DFF888C10CF1040CDCF86D
:100D300000C0CCF3881C07FB0CF40CE0624FB7FB3F
:100D4000F3F7DFF86CC10CF1040CDCF800C0CCF355
:100D5000881C07FB0CF4564F3F1D3F68C7F3014743
:100D60007F1C7D00B4FBF5F7076002E0564F07607B
:100D700000BF00BF4E4F08373F6807F0F001090978
:100D8000534F7A5C0768D7404760494F08373F6840
:100D900007F4E051890A4E4F7A5C4768D740876074
:100DA000434F08373F6807F46041490B484F7A5C6E
:100DB0004768D740C760F0BD002100F44072B2F52B
:100DC000407F0AD13A4A0832116821F4F811414AA9
:100DD00002401143364A08321160354A70321268B7
:100DE000C0F30B031A43324B70331A607047354916
:100DF00044390860704733494039086070473649C4
:100E00000860704701460020294A8C32106820F0A3
:100E10001F004A1E1043264A8C321060704701465C
:100E20000020234A8C32106820F4F8504A1E40EA11
:100E300002201F4A8C3210607047014600201C4A75
:100E40008C32106820F4401008431060704701464F
:100E50000020174A8C32106820F4400008431060CC
:100E6000704701460020124A8C32106820F440304E
:100E700008431060704719490860704739B10C4A3F
:100E80003032126802430A4B30331A6006E0084AD7
:100E9000303212688243064B30331A607047F9B122
:100EA000034A343212680243014B34331A601CE0A7
:100EB00000380240FFFFF6EA103000240030002026
:100EC00000004742800E47420024F40000127A00DE
:100ED00014000020FFFCFF0F5C014742E011474275
:100EE0008F4A126882438E4B1A60704739B18C4A20
:100EF000121D126802438A4B1B1D1A6006E0884AC5
:100F0000121D12688243864B1B1D1A60704739B14F
:100F1000834A0C3212680243814B0C331A6006E09C
:100F20007F4A0C32126882437D4B0C331A60704743
:100F300039B17B4A103212680243794B10331A6080
:100F400006E0774A103212688243754B10331A60FC
:100F5000704739B1724A243A12680243704B243BFD
:100F60001A6006E06E4A243A126882436C4B243BB6
:100F70001A60704739B16A4A203A12680243684BD6
:100F8000203B1A6006E0664A203A12688243644BAE
:100F9000203B1A60704739B1614A1C3A126802431B
:100FA0005F4B1C3B1A6006E05D4A1C3A12688243A4
:100FB0005B4B1C3B1A60704739B1594A143A1268AE
:100FC0000243574B143B1A6006E0554A143A126824
:100FD0008243534B143B1A60704739B1504A103A60
:100FE000126802434E4B103B1A6006E04C4A103A1E
:100FF000126882434A4B103B1A60704739B1484A25
:101000001C3212680243464B1C331A6006E0444A05
:101010001C3212688243424B1C331A60704739B14C
:101020003F4A2032126802433D4B20331A6006E0EB
:101030003B4A203212688243394B20331A60704792
:1010400039B1374A243212680243354B24331A60CF
:1010500006E0334A243212688243314B24331A604B
:10106000704739B12E4A2C32126802432C4B2C3374
:101070001A6006E02A4A2C3212688243284B2C332D
:101080001A60704739B1264A303212680243244B45
:1010900030331A6006E0224A303212688243204B15
:1010A00030331A607047012808D11D493C31096866
:1010B00041F008011A4A3C32116007E018493C31FE
:1010C000096821F00801164A3C321160704739B1B5
:1010D000134A273A12780243114B273B1A7006E055
:1010E0000F4A273A127882430D4B273B1A707047FC
:1010F0000B484030006840F080700949403108607A
:10110000704701460020064A283A12680A400AB190
:10111000012000E00020704701492639087070471F
:101120003438024010B50446FE48844208D10121FB
:101130000846FFF752FF00210120FFF74EFF9DE018
:10114000B4F1804F08D101210846FFF735FF002197
:101150000120FFF731FF91E0F348844208D10121DB
:101160000220FFF729FF00210220FFF725FF85E07D
:10117000EE48844208D101210420FFF71DFF002121
:101180000420FFF719FF79E0E948844208D10121E2
:101190000820FFF711FF00210820FFF70DFF6DE089
:1011A000E448844208D101211020FFF705FF002107
:1011B0001020FFF701FF61E0DF48844208D10121E0
:1011C0002020FFF7F9FE00212020FFF7F5FE55E073
:1011D000DA48844208D101210220FFF7FEFE0021F7
:1011E0000220FFF7FAFE49E0D548844209D10121E7
:1011F0000804FFF7F2FE00214FF48030FFF7EDFE08
:101200003CE0D048844209D101214804FFF7E5FEC3
:1012100000214FF40030FFF7E0FE2FE0CA4884427F
:1012200009D101218804FFF7D8FE00214FF4802066
:10123000FFF7D3FE22E0C548844208D101214020B7
:10124000FFF7BAFE00214020FFF7B6FE16E0C048C7
:10125000844208D101218020FFF7AEFE00218020CA
:10126000FFF7AAFE0AE0BB48844207D1012180159E
:10127000FFF7A2FE0021A015FFF79EFE10BD002281
:101280000288A84B98420ED0AC4B98420BD0B0F1DC
:10129000804F08D0A44B984205D0A44B984202D06E
:1012A000A34B984204D14FF68F731A404B881A43D0
:1012B000A04B984207D0A04B984204D04FF6FF4372
:1012C0001A400B891A4302804B68C3620B8803855E
:1012D000944B984202D0994B984201D18B7A038665
:1012E0000123838270474FF0FF314160002101806C
:1012F00001814180817270470185828270470A4670
:10130000002101884FF68F73194011430180704707
:1013100041627047C16270470146486A70470146A2
:10132000088D704721B1028842F00202028004E079
:1013300002884FF6FD731A400280704721B102887F
:1013400042F00402028004E002884FF6FB731A4068
:101350000280704721B1028842F08002028004E0DE
:1013600002884FF67F731A400280704702884FF65A
:10137000F7731A40028002880A430280704702888D
:101380004FF6FF431A40028002880A4302807047EA
:1013900021B1028842F00102028004E002884FF687
:1013A000FE731A400280704770B5002400220023AB
:1013B000058C4FF6FE7635400584028C8388048BBD
:1013C0004FF68F752C40B51E2C400D882C43751E92
:1013D0002A408D892A434D882A43524DA84202D083
:1013E000564DA84213D14FF6F7752A40CD892A43AE
:1013F0004FF6FB752A408D882A434FF6FF652B4038
:101400004FF6FF552B400D8A2B434D8A2B4383808B
:1014100004838D684563028470BD70B5002400228A
:101420000023058C4FF6EF7635400584028C8388C7
:10143000048B48F6FF752C404FF6FF452C400D8875
:101440004FF6FF7606EA05252C434FF6DF752A4056
:101450008D8906EA05152A434D8806EA05152A43B3
:10146000304DA84202D0354DA8421DD14FF67F75B0
:101470002A40CD894FF6FF7606EA05152A434FF636
:10148000BF752A408D8806EA05152A434FF6FF35B9
:101490002B404FF2FF752B400D8A06EA85052B4342
:1014A0004D8A06EA85052B43838004838D68856316
:1014B000028470BD70B5002400220023058C4FF615
:1014C000FF6635400584028C8388848B4FF68F75C8
:1014D0002C404FF6FC752C400D882C434FF6FF55E1
:1014E0002A408D894FF6FF7606EA05252A434D8866
:1014F00006EA05252A430B4DA84202D00F4DA8420B
:1015000038D14FF2FF752A40CD894FF6FF7606EAB3
:1015100005252A434FF6FF352A408D8806EA052522
:101520002A4319E000000140000400400008004088
:10153000000C004000100040001400400004014076
:1015400000400140004401400048014000180040B4
:10155000001C0040002000404EF6FF752B404DF669
:10156000FF752B400D8A06EA05152B434D8A06EAC6
:1015700005152B43838084838D68C563028470BD09
:1015800070B5002200230024058C4EF6FF7635400E
:101590000584038C8488828B48F6FF752A404FF6B9
:1015A000FF452A400D884FF6FF7606EA05252A43B7
:1015B0004DF6FF752B408D8906EA05352B434D8886
:1015C00006EA05352B43FE4DA84202D0FD4DA84248
:1015D00008D14BF6FF752C400D8A4FF6FF7606EAD0
:1015E00085152C43848082838D680564038470BDD7
:1015F000002101804180818081608181C1810182DF
:101600004182704770B50346002000241846183008
:1016100001258D40ACB21D8CA5431D8409B108295C
:101620000AD100EB610005684FF68F763540056002
:101630000568154305600FE00D1FC5F34E052844EE
:10164000056848F6FF763540056005684FF6FF7679
:1016500006EA02263543056070BD41637047816329
:101660007047C1637047016470470A460021018BCF
:101670004FF68F7319401143018370470A460021CA
:10168000018B48F6FF7319404FF6FF7303EA0223FC
:101690001943018370470A460021818B4FF68F73EF
:1016A00019401143818370470A460021818B48F617
:1016B000FF7319404FF6FF7303EA02231943818336
:1016C00070470A460021018B4FF6F773194011430A
:1016D000018370470A460021018B4FF2FF731940C6
:1016E0004FF6FF7303EA02231943018370470A464A
:1016F0000021818B4FF6F7731940114381837047A6
:101700000A460021818B4FF2FF7319404FF6FF7399
:1017100003EA02231943818370470A460021018BA3
:101720004FF6FB7319401143018370470A460021AD
:10173000018B4FF6FF3319404FF6FF7303EA022384
:101740001943018370470A460021818B4FF6FB73D2
:1017500019401143818370470A460021818B4FF65F
:10176000FF3319404FF6FF7303EA022319438183C5
:1017700070470A460021018B4FF67F7319401143D1
:10178000018370470A460021018BC1F30E014FF619
:10179000FF7303EA02231943018370470A460021BD
:1017A000818B4FF67F7319401143818370470A463E
:1017B0000021818BC1F30E014FF6FF7303EA022370
:1017C0001943818370470A460021018C4FF6FD734F
:1017D00019401143018470470A460021018C4FF6DD
:1017E000F77319401143018470470A460021018CA8
:1017F0004FF6DF7319404FF6FF7303EA02131943E4
:10180000018470470A460021018C4FF67F7319400E
:101810004FF6FF7303EA02131943018470470A4627
:101820000021018C4FF6FF5319404FF6FF7303EA76
:1018300002231943018470470A460021018C4FF2AC
:10184000FF7319404FF6FF7303EA02231943018423
:1018500070470A460021018C4DF6FF7319404FF680
:10186000FF7303EA023319430184704730B5002344
:1018700001248C40A3B2048C9C430484048C02FA9F
:1018800001F5ADB22C43048430BD30B500230424EF
:101890008C40A3B2048C9C430484048C02FA01F5AE
:1018A000ADB22C43048430BD828B4FF2FF331A401B
:1018B0008283828B4FF6FF7303EA01231A438283EC
:1018C0007047F0B50C461546002100220026078C13
:1018D0004EF6FF7C07EA0C070784818B028C4FF6DB
:1018E000FF7707EA043640F6FF4739404FF6FF77A7
:1018F00007EA052739434FF6FF7707EA03373943ED
:1019000045F6FF773A4046F480573A438183028494
:10191000F0BD828B4FF6F3731A408283828B0A43A9
:1019200082837047F0B50C46154600210022002640
:10193000078C4FF6FF6C07EA0C070784818B028C3B
:101940004FF6FF7707EA04264FF60C7739404FF63B
:10195000FF7707EA03172F4339434FF2FF573A4007
:1019600046F480773A4381830284F0BD028B4FF2C4
:10197000FF331A400283028B4FF6FF7303EA012301
:101980001A4302837047F0B50C4615460021002229
:101990000026078C4FF6EF7C07EA0C070784018BC3
:1019A000028C4FF6FF7707EA041640F6FF473940EE
:1019B0004FF6FF7707EA033739434FF6FF7703E027
:1019C000000001400004014007EA052739434FF6B3
:1019D0005F773A4046F010073A4301830284F0BD36
:1019E000028B4FF6F3731A400283028B0A43028381
:1019F0007047F0B50C46154600210022068C4FF6C4
:101A0000FE773E400684018B028C4FF60C76314007
:101A10007E1C06EA03162E4331434FF6F57632401C
:101A200044F00106324301830284F0BD70B50546DF
:101A30000C46208850B92389A28861882846FFF780
:101A4000D8FFE1882846FFF7CBFF25E0208804284F
:101A50000AD12389A28861882846FFF794FFE1888C
:101A60002846FFF783FF17E0208808280AD123893A
:101A7000A28861882846FFF755FFE1882846FFF7CE
:101A800048FF09E02389A28861882846FFF719FFEB
:101A9000E1882846FFF708FF70BD002101804180E2
:101AA000012181800021C180018170472DE9F04131
:101AB00005460C4600260127608808B9022600E08A
:101AC0000026A088012801D1022700E001272088F4
:101AD000A0B92389A28861882846FFF78AFFE18898
:101AE0002846FFF77DFF23893A4631462846FFF70F
:101AF0004AFFE1882846FFF739FF13E02389A288CF
:101B000061882846FFF73FFFE1882846FFF72EFF50
:101B100023893A4631462846FFF76BFFE18828467D
:101B2000FFF75EFFBDE8F0810146486B7047014654
:101B3000886B70470146C86B70470146086C704758
:101B40000A884B881A438B881A43CB881A430B891F
:101B50001A434B891A438B891A43A0F844207047D3
:101B60000021018041808180C1800181418181818A
:101B7000704731B1B0F8442042F40042A0F844204C
:101B800005E0B0F84420C2F30E02A0F844207047EC
:101B900021B1828842F00402828004E082884FF6FC
:101BA000FB731A408280704721B1828842F00102A3
:101BB000828004E082884FF6FE731A40828070476C
:101BC0001AB183890B43838102E083898B4383812C
:101BD00070478182704702460020138A0B400BB188
:101BE000012000E000207047CA430282704730B5F0
:101BF0000246002000230024158A05EA0103958986
:101C000005EA010413B10CB1012000E0002030BD51
:101C1000CA430282704741EA0203A0F84830704785
:101C20001AB183890B43838102E083898B438381CB
:101C3000704721B1828842F00802828004E08288E5
:101C40004FF6F7731A408280704701894FF6F87299
:101C50001140018170470A46002101894FF68F73B8
:101C6000194011430181704730B504460D4629469D
:101C70002046FFF7F0FF208940F00700208130BDAB
:101C80002DE9F04104460D4616461F46602D06D14B
:101C90003B46012231462046FFF775FE05E03B46F4
:101CA000012231462046FFF7A4FE29462046FFF7D1
:101CB000D2FF208940F007002081BDE8F08130B5D7
:101CC0000C4600210189C9B24FF6FF7505EA0325CC
:101CD000154325432943018130BD2DE9F0410546D7
:101CE0000E4617469846002443463A463146284653
:101CF000FFF7E5FF2C894FF6F870044044F0070425
:101D00004FF68F70044044F070042C81BDE8F081E0
:101D1000F0B504460D4616461F463B463246294658
:101D20002046FFF7CCFF208940F480402081F0BDA1
:101D300082884FF68F731A40828082880A4382809D
:101D4000704702894FF6F8731A40028102890A43EC
:101D50000281704702894FF67F731A40028102891F
:101D60000A4302817047F0B50C4615461E46002115
:101D7000002200230189028B038C4FF6F87739404B
:101D800021434FF6FC473A4040F201173A434FF6E1
:101D9000DD773B404FF6FF7707EA06172F433B43BB
:101DA000018102830384F0BD21B1828842F0800268
:101DB000828004E082884FF67F731A4082807047E9
:101DC000A0F850107047000010B50446FA4884424D
:101DD00008D101211020FFF700F900211020FFF7A2
:101DE000FCF857E0F548844209D101214804FFF787
:101DF000E3F800214FF40030FFF7DEF84AE0F04846
:101E0000844209D101218804FFF7D6F800214FF45C
:101E10008020FFF7D1F83DE0EA48844209D1012152
:101E2000C804FFF7C9F800214FF40020FFF7C4F8F9
:101E300030E0E548844209D101210805FFF7BCF8EC
:101E400000214FF48010FFF7B7F823E0DF48844209
:101E500008D101212020FFF7C0F800212020FFF742
:101E6000BCF817E0DA48844209D101218807FFF75E
:101E7000A3F800214FF08040FFF79EF80AE0D54814
:101E8000844207D101214005FFF796F80021600543
:101E9000FFF792F810BD2DE9FF4705460E460024D6
:101EA000A14600BFA046B08900B100BF2C8A24F42F
:101EB0004054F08804432C82AC8941F20C60844386
:101EC000B08831890843718908430443AC81AC8AE6
:101ED00024F44074B0890443AC826846FEF7FDFEEA
:101EE000B548854202D0B948854202D1DDF80C9050
:101EF00001E0DDF80890A88900F4004040B109EB4A
:101F0000C90000EB091031684900B0FBF1F707E0A8
:101F100009EBC90000EB091031688900B0FBF1F74B
:101F20006420B7FBF0F004012009642101FB107864
:101F3000A88900F4004040B1322000EBC800B0FB9B
:101F4000F1F000F00700044308E0322000EB081035
:101F50006421B0FBF1F000F00F0004432C81BDE8D8
:101F6000FF874FF41651016000218180C1800181FB
:101F70000C21418100218181704710B5024600206B
:101F8000108A20F470600B884C8823438C8823438C
:101F9000CC8823431843108210BD0021018041806A
:101FA0008180C180704721B1828942F400528281D0
:101FB00004E082894DF6FF731A4082817047028BDC
:101FC00002F47F420283028B0A430283704721B1ED
:101FD000828942F40042828103E08289C2F30E02C8
:101FE0008281704721B1828A42F40062828204E0D9
:101FF000828A4FF2FF731A4082827047C1F308024F
:102000008280704701468888C0F308007047028AC2
:102010004FF6F0731A400282028A0A430282704726
:1020200021B1828942F00202828104E082894FF666
:10203000FD731A408281704782894FF2FF731A4004
:10204000828182890A4382817047028A4FF6DF7358
:102050001A400282028A0A430282704721B1028A30
:1020600042F48042028204E0028A4BF6FF731A4077
:1020700002827047818941F001018181704721B15D
:10208000828A42F00802828204E0828A4FF6F77365
:102090001A4082827047028BD2B20283028B42EADC
:1020A00001220283704721B1828A42F0200282829B
:1020B00004E0828A4FF6DF731A408282704721B1B2
:1020C000828A42F01002828204E0828A4FF6EF7325
:1020D0001A4082827047828A4FF6FB731A408282CE
:1020E000828A0A438282704721B1828A42F00202C8
:1020F000828204E0828A4FF6FD731A408282704722
:102100001AB1838A0B43838202E0838A8B438382E2
:102110007047F0B50346002400260025002040F655
:102120006A17B94200D100BF1846C1F3421401F04A
:102130001F06012707FA06F5012C01D10C3004E037
:10214000022C01D1103000E014301AB107682F437F
:10215000076002E00768AF430760F0BD0246002059
:10216000B1F5007F00D100BF13880B400BB10120F7
:1021700000E00020704701F40072B2F5007F00D14A
:1021800000BFCA430280704770B502460024002396
:102190000025002040F66A16B14200D100BFC1F30D
:1021A000421501F01F03012606FA03F3012D13D196
:1021B0009689334017E000000010014000440040C1
:1021C00000480040004C0040005000400014014016
:1021D00000780040007C0040022D02D1168A334076
:1021E00001E0968A33400C12012606FA04F41688A0
:1021F000344013B10CB1012000E0002070BD10B5D7
:102200000022002340F66A14A14200D100BF0A1246
:1022100001249440A3B2DC43048010BD10B50446F1
:102220006FF00400FEF7E8FAE11704EB5171C1F317
:10223000C701394A11701046007800EB4001C1EB2C
:10224000C0104FF6FF7101EAC0003449088010BD8C
:102250000146314A12784A434FF0E0235A61002286
:102260009A611A46126942F001021A6100BF4FF0EA
:10227000E022106900F001021AB100F48032002A55
:10228000F5D04FF0E022126922F001024FF0E02376
:102290001A6100229A6170470146204A12884A4317
:1022A0004FF0E0235A6100229A611A46126942F007
:1022B00001021A6100BF4FF0E022106900F0010234
:1022C0001AB100F48032002AF5D04FF0E0221269F2
:1022D00022F001024FF0E0231A6100229A61704758
:1022E00070B504464FF4077094FBF0F0C6B24FF49B
:1022F000077094FBF0F100FB114085B205E04FF44C
:102300000770FFF7C9FF701EC6B2002EF7D115B1D6
:102310002846FFF7C1FF70BD2400002026000020E2
:1023200010B5002807DA0A07140EFA4A00F00F0366
:102330001B1FD45403E00A07130EF74A135410BDB1
:1023400010B50446F548006840F40020F3490860E1
:10235000F2481038006840F00100F0491039086078
:10236000EF48006820F00300ED4908600846006867
:1023700040F0020008600846006A20F00F00086282
:102380000846006A40F0080008620846C06820F06D
:102390000300C8600846406820F001004860084615
:1023A000806840F0030088600846C06820F00300A1
:1023B000C8600846006820F00C0008600846006805
:1023C00040F0080008600846006A20F0F00008624B
:1023D0000846006A40F0800008620846C06820F0A5
:1023E0000C00C8600846C06840F00400C860CD48D2
:1023F000008820F40050CB4908800846008820F46B
:1024000080500880081D008820F44050091D088075
:10241000081F008820F48060091F0880C248B0FBB4
:10242000F4F0091F0880081D008840F00400091D11
:1024300008800846008840F00800088008460088A8
:1024400040F02000088001213420FFF769FF34208C
:1024500000F0D4F9B348008840F40050B149088036
:1024600010BD10B50446AD48006840F40030AB49DB
:102470000860AA481038006840F00100A7491039E8
:102480000860A748006820F03000A54908600846A9
:10249000006840F0200008600846006A20F4706080
:1024A00008620846006A40F4E06008620846C068B6
:1024B00020F03000C8600846406820F00400486002
:1024C0000846806840F0300088600846C06820F008
:1024D0003000C8600846006820F0C0000860084668
:1024E000006840F0800008600846006A20F47040F0
:1024F00008620846006A40F4E04008620846C06886
:1025000020F0C000C8600846C06840F04000C860C5
:102510008648008820F400508449088008460088D6
:1025200020F480500880081D008820F44050091DC8
:102530000880081F008820F48060091F08807A48FE
:10254000B0FBF4F0091F0880081D008840F004006B
:10255000091D08800846008840F0080008800846E9
:10256000008840F02000088001212620FFF7D8FED7
:10257000262000F043F96D48008840F400506B4974
:10258000088010BD10B504466448006840F48020FF
:102590006249086061481038006840F002005F49F5
:1025A000103908606248006820F4401060490860F3
:1025B0000846006840F4001008600846406A20F4AD
:1025C00070615B484162406A40F4E0615848416292
:1025D00057480C30006820F4401055490C31086011
:1025E0005348001D006820F480605149091D0860AF
:1025F000081D006840F44010091D0860081D0068AF
:1026000020F44010091D08604948006820F440008B
:10261000474908600846006840F400000860084622
:10262000406A20F4704142484162406A40F4E0410F
:102630003F4841623E480C30006820F440003C496D
:102640000C3108600846006840F480000860394892
:10265000008820F40050374908800846008820F49C
:1026600080500880081D008820F44050091D088013
:10267000081F008820F48060091F08802A48B0FBEA
:10268000F4F0091F0880081D008840F00400091DAF
:1026900008800846008840F0080008800846008846
:1026A00040F02000088001212720FFF739FE272075
:1026B00000F0A4F81F48008840F400501D4908802D
:1026C00010BD10B519480C38008800F02000002813
:1026D00065D0164808380088C4B201201649087031
:1026E0000A2C4DD115A1174805F004FB30B9012083
:1026F0001549087000201549087039E014A11148E7
:1027000005F0F8FA50BB01201349087000200F496A
:1027100008702DE018ED00E000E400E040380240D1
:10272000000002400C4C004080DE80020C4400405F
:10273000000402400C4800402800002073746F70B1
:1027400000000000F40000202900002042000020CA
:102750007475726E000000002A000020FFE72D480B
:1027600005F024FA00B22C49088001202B4908709A
:1027700000202B4908701021264805F071FA0EE060
:1027800027490878C11700EB11710911A0EB01115D
:10279000204A545422480078401C2149087010BD3A
:1027A0002049098801F0200171B11E49091D0988DD
:1027B000C8B24C2803D101211B4A117004E05228F1
:1027C00002D10121194A1170704710B50446214603
:1027D0001748FFF713FC00BF80211548FFF7BEFC28
:1027E0000028F9D010BD10B5044603E02078FFF7AB
:1027F000ECFF641C20780028F8D110BD00F01F0207
:10280000012191404209920002F1E022C2F8001138
:1028100070470000F400002040000020420000202B
:102820002D000020004C00402B0000202C00002038
:10283000004800403E48006840F004003C49086001
:102840003C48006820F00C003A49086008460068DF
:1028500040F004000860081D006820F00200091D17
:102860000860081F006820F03000091F0860084653
:10287000006840F010000860081D006820F00400A7
:10288000091D0860081F006820F00300091F086088
:102890000846006840F001000860081D006820F04C
:1028A0000100091D086023481430006840F0020050
:1028B0002049143108600846006840F004000860B0
:1028C0000846006840F001000860704710B51948DC
:1028D0001430006840F0010016491431086064208B
:1028E00002F0B0FC13481430006820F001001149D8
:1028F0001431086010BD0F481430006840F0020029
:102900000C49143108600846006820F00200086095
:10291000704708481430006840F00400054914313D
:1029200008600846006820F0040008607047000056
:102930003038024000080240674A126842F0010243
:10294000654B1A60654A126822F44032634B1A6084
:102950001A46126842F400321A601A46526A22F08D
:102960000F035E4A5362526A42F001035B4A5362AC
:10297000926842F44032594B9A601A46526822F4E7
:1029800080725A601A46D26822F44032DA601A46DF
:10299000D26842F48032DA604F4A1432126842F050
:1029A00001024D4B14331A604D4A128C42F0010261
:1029B0004B4B1A841A46128B22F070021A831A4665
:1029C000128B42F060021A831A46128B42F0080200
:1029D0001A831A46D0621185128842F080021A804A
:1029E00000225A633E4A4432128842F40042A3F85D
:1029F00044201A46928A42F001029A821A461288AC
:102A000042F001021A807047334A126842F0010214
:102A1000314B1A60314A126822F440122F4B1A606F
:102A20001A46126842F400121A601A46526A22F4D8
:102A300070632A4A5362526A42F48073274A53628F
:102A4000926842F44012254B9A601A46526822F46A
:102A500080625A601A46D26822F44012DA601A463E
:102A6000D26842F48012DA601B4A1432126842F0D3
:102A70000102194B14331A60194A128C42F4807205
:102A8000174B1A841A46928B22F070029A831A46C8
:102A9000928B42F060029A831A46928B42F00802AF
:102AA0009A831A46D0621185128842F080021A80F9
:102AB0000B4A4432128842F40042A3F84420002218
:102AC000DA631A46928A42F001029A821A46128802
:102AD00042F001021A807047303802400000024084
:102AE0000000014010B5A448006840F00C00A24965
:102AF0000860A248006820F07F40A04908600846AE
:102B0000006840F0AA4008609C480830006840F027
:102B10007F409A4908310860081F006820F470401F
:102B2000091F086095480C30006820F07F409349E9
:102B30000C31086090481030006840F080508E4999
:102B4000103108608E48006840F480708C4908603D
:102B50008C48006820F040608A4908600846006898
:102B600040F08060086087480830006840F04060AE
:102B7000844908310860081F006820F40050091FCC
:102B8000086080480C30006820F040607D490C31BE
:102B900008604FF400517B48FDF74EFF10BD70B543
:102BA0000446B4F57A7F02DD4FF47A7005E014F53F
:102BB0007A7F01DA744800E020460446002C0ADDE2
:102BC0004FF480516D48FDF737FF4FF400516B48CB
:102BD000FDF734FF16E0002C0ADA4FF48051674805
:102BE000FDF72CFF4FF400516448FDF725FF09E085
:102BF0004FF480516148FDF721FF4FF400515F48C9
:102C0000FDF71CFF251E01DB284600E06842014657
:102C10005E48FEF722FD70BD70B50446B4F57A7FBC
:102C200002DD4FF47A7005E014F57A7F01DA564838
:102C300000E020460446002C0ADD4FF400414F48D6
:102C4000FDF7FAFE4FF480414C48FDF7F7FE16E021
:102C5000002C0ADA4FF400414848FDF7EFFE4FF42C
:102C600080414648FDF7E8FE09E04FF40041434843
:102C7000FDF7E4FE4FF480414048FDF7DFFE251EDE
:102C800001DB284600E0684201464048FEF7E9FCC7
:102C900070BD10B51220FFF782FF1220FFF7BCFFB6
:102CA00040F2D52002F0CEFA6FF01300FFF777FF65
:102CB0001420FFF7B1FF40F28A2002F0C3FA10BDE2
:102CC00010B51220FFF76BFF1220FFF7A5FF40F2AF
:102CD000D52002F0B7FA1420FFF761FF6FF0130060
:102CE000FFF79AFF40F28A2002F0ACFA10BD10B54F
:102CF0001220FFF754FF6FF01300FFF78DFF40F233
:102D00006A4002F09FFA0020FFF749FF0020FFF71A
:102D100083FF40F28A2002F095FA10BD10B5122010
:102D2000FFF73DFF1220FFF777FF40F2262002F069
:102D300089FA6FF01300FFF732FF1420FFF76CFFE2
:102D40004FF4FA7002F07EFA10BD10B51220FFF7B2
:102D500026FF1220FFF760FF40F2EE2002F072FA29
:102D60001420FFF71CFF6FF01300FFF755FF4FF41F
:102D7000FA7002F067FA10BD30380240000C0240D1
:102D8000007000400008024018FCFFFF00000140F6
:102D900010B5002807DA0A07140E814A00F00F0365
:102DA0001B1FD45403E00A07130E7E4A135410BDB0
:102DB0007D48006840F010007B4908607B4800684F
:102DC00020F47C607949086008460068086008467D
:102DD000C06820F47C60C8600846C06840F4A86001
:102DE000C860704710B570481030006840F00100AE
:102DF0006D491031086042F2CF000906088542F2A1
:102E00000F70C8620846008840F0800008800846BD
:102E1000808A40F0010088820846008840F0010066
:102E200008800846808940F00100888103211C2029
:102E3000FFF7AEFF1C2000F0A7F84FF0804000889D
:102E400040F001004FF08041088010BD10B5564899
:102E50001430006840F480405349143108605448ED
:102E6000006820F47040524908600846006840F449
:102E7000804008604E480838C06820F00F014C4878
:102E80000838C160C06840F0040149480838C16092
:102E9000C06820F0F00146480838C160C06840F0C2
:102EA000400143480838C1604248006840F038009B
:102EB000404908603F480C30006840F038003D4908
:102EC0000C31086006210920FFF762FF092000F09D
:102ED0005BF806210A20FFF75BFF0A2000F054F898
:102EE00006211720FFF754FF172000F04DF810BD02
:102EF00010B530481430006800F0080088B108218F
:102F00002A48FDF77FFD20B92B480078401C2A494C
:102F1000087028481430006840F008002549143132
:102F2000086010BD10B523481430006800F0100090
:102F300088B110211D48FDF765FD20B91F480078B4
:102F4000401C1E4908701B481430006840F01000F7
:102F500018491431086010BD10B5164814300068C7
:102F600000F0200078B120211048FDF74BFD10B98A
:102F70000120134908700F481430006840F0200009
:102F80000C491431086010BD00F01F02012191406E
:102F90004209920002F1E022C2F8001170470000DD
:102FA00018ED00E000E400E030380240001002407C
:102FB00008380140003C0140380000203900002062
:102FC0003C00002010B52DED068B0446F0EE408A43
:102FD0009FEDD50AB0EE408AC4ED048A18EE900A3F
:102FE00005F09AF841EC1A0BB0EE4A0AF0EE6A0AC4
:102FF00004F0D5FFB0EE409AF0EE609A9FEDCB0B57
:1030000053EC102B51EC190B04F0F6FF04D29FED9A
:10301000C60A84ED060A23E094ED060AD4ED040AFC
:1030200030EE200A84ED060A94ED060ADFEDC10AAF
:10303000B4EEE00AF1EE10FA02DD9FEDBE0A0DE0FB
:1030400094ED060ADFEDBC0AB4EEE00AF1EE10FAE8
:1030500002D29FEDB90A01E094ED060A84ED060A5A
:1030600094ED000AD4ED040A20EE200AD4ED010A02
:1030700094ED061A00EE810AD4ED040A94ED051AC7
:1030800070EEC10A94ED021A01EE200AB0EE408AF9
:103090009FEDA80AB4EEC08AF1EE10FA02DD9FEDB2
:1030A000A50A0BE09FEDA40AB4EEC08AF1EE10FA77
:1030B00002D29FEDA10A01E0B0EE480AB0EE408ACC
:1030C00094ED040A84ED050A84ED078AB0EE480AFF
:1030D000BDEC068B10BD70B52DED028B9FED920AF5
:1030E000B0EE408A95480088401D04B29348B0F97C
:1030F00000509348B0F9000000EE100AB8EEC00A84
:103100009048FFF75FFFB0EE408A8C48B0F90000AE
:1031100000EE100AB8EEC00A30EE480ABDEEC00A52
:1031200010EE100A04B28548B0F9000000EE100A53
:10313000B8EEC00A30EE080ABDEEC00A10EE100A62
:1031400005B2322C01DD322006E014F1320F02DA32
:103150006FF0310000E020460446322D01DD3220C0
:1031600006E015F1320F02DA6FF0310000E0284678
:1031700005462046FFF713FD2846FFF74DFDBDEC41
:10318000028B70BD70490978032907DA6E490A7805
:103190000978491C6C4B19706C498854704770B59C
:1031A000054600247BE06A480078012809D1002008
:1031B000FFF7F5FC0020FFF72FFD002001F056FD82
:1031C00070BD00F05DFB634908706348007801281A
:1031D00025D16248007810B96148007850B1FFF7F6
:1031E00058FD00205C4908705E4908704C20FFF7CC
:1031F000C9FF13E05C48007810B95C48007850B112
:10320000FFF75EFD002054490870564908705220AF
:10321000FFF7B8FF02E000204F4908703FE0544834
:10322000007828B1002052490870012051490860F7
:1032300050480068002810DD4E480068401C4D4989
:10324000086008460068C82807DB012400200860E1
:1032500049A20121042000F0AAF9E4B14A4800780B
:1032600028B1FFF738FF00204749087013E04748AE
:10327000007880B10020FFF792FC0020FFF7CCFC23
:103280003448007838B9FFF732FD00203F49087014
:1032900001202F4908700A2001F0D4FF00BF82E707
:1032A00041E02B48007801283AD12B4800780128CA
:1032B00024D125480078401E35490968401A234921
:1032C0000C5C4C2C02D1FFF740FD03E0522C01D1E5
:1032D000FFF724FD2E480068401C2D49086000209F
:1032E0001D4908702A48006817490978884204DB9C
:1032F0000020274908601449087011E0234800782D
:1033000030B10020FFF74BFC0020FFF785FC07E001
:103310001D48007820B1FFF7DEFE00201A49087032
:103320000A2001F08FFFBCE7000000000000000051
:103330000000144000004842000048C24400002041
:1033400040000020500000204A00002047000020DC
:1033500046000020750000202A0000203A000020CE
:103360002B000020380000203B0000202C00002013
:1033700074000020700000204C696E65205472615A
:103380006365204F4B000000420000202900002010
:103390004C0000201CB58020009001208DF8040016
:1033A00000208DF8060002208DF8050001208DF820
:1033B00007006946FE48FDF7C3FA1CBD1CB5802016
:1033C000009000208DF8040001208DF80700694668
:1033D000F748FDF7B5FA1CBD10B50446FFF7DAFF54
:1033E00024B18021F248FDF727FB03E08021F0485B
:1033F000FDF724FB10BD10B5044624B14021EC4874
:10340000FDF71AFB03E04021E948FDF717FB10BD6B
:103410001CB501210846FDF731FD40200090012038
:103420008DF8040000208DF8060002208DF80500BC
:1034300001208DF807006946DD48FDF781FA01207B
:10344000FFF7D9FF0120FFF7C7FF1CBD10B5012012
:10345000FFF7C2FF0120FFF7CEFF0020FFF7BCFF00
:103460000020FFF7C8FF10BD10B50020FFF7B4FF24
:103470000120FFF7C0FF0120FFF7AEFF10BD70B5C0
:10348000054600240DE08021214101EA0500FFF7F7
:10349000A3FF0120FFF7AFFF0020FFF7ACFF601C88
:1034A000C4B2082CEFDB0120FFF7A5FF0020FFF7D7
:1034B000A2FF70BD10B50446FFF7C8FF7820FFF7E4
:1034C000DEFF0020FFF7DBFF2046FFF7D8FFFFF706
:1034D000CBFF10BD10B50446FFF7B8FF7820FFF70B
:1034E000CEFF4020FFF7CBFF2046FFF7C8FFFFF7D6
:1034F000BBFF10BD70B505460C4645F0B000FFF7A8
:10350000D9FF102141EA1410FFF7D4FF04F00F0097
:10351000FFF7D0FF70BD70B500240EE000212046FB
:10352000FFF7E8FF002504E00020FFF7D3FF681C49
:10353000C5B2802DF8DB601CC4B2082CEEDB70BD78
:103540002DE9F04105460E461746721ED206110EB1
:103550006A1E5206100EFFF7CDFF002409E0A7F106
:103560002001944A02EB0111085DFFF7B3FF601CD4
:10357000C4B2082CF3DB721ED206110E6A1E0123A0
:1035800003EB4202D0B2FFF7B5FF00240BE0A7F136
:103590002001884A02EB011204F10801505CFFF798
:1035A00099FF601CC4B2082CF1DBBDE8F0812DE965
:1035B000F04107460E461546002407E02A5D301903
:1035C000C1B23846FFF7BCFF601CC4B2285D0028BA
:1035D000F4D1BDE8F08110B50246012000E050436F
:1035E0000B1EA1F10101FAD110BD2DE9F047804673
:1035F0000E4617461D46002415E0281B411E0A20D2
:10360000FFF7E9FFB7FBF0F00A21B0FBF1F201FB95
:10361000120000F130093019C1B24A464046FFF7A6
:103620008FFF601CC4B2AC42E7DBBDE8F0872DE938
:10363000F0478146884615461E46002D06DB2B22A4
:1036400041464846FFF77CFF2F4605E02D224146C4
:103650004846FFF775FF6F42002417E0301B411EFC
:103660000A20FFF7B8FFB7FBF0F00A21B0FBF1F238
:1036700001FB120000F1300A08EB0400401CC1B24B
:1036800052464846FFF75CFF601CC4B2B442E5DB1B
:10369000BDE8F0872DE9F04781460E4690461F466B
:1036A00000241DE0381B411E1020FFF794FFB8FBDB
:1036B000F0F000F00F050A2D08DA05F13000C2B273
:1036C0003019C1B24846FFF73BFF07E005F137006C
:1036D000C2B23019C1B24846FFF732FF601CC4B213
:1036E000BC42DFDBBDE8F0872DE9F04780460E469F
:1036F00017461D46002412E0281B411E0220FFF73A
:103700006AFFB7FBF0F000F0010000F1300930195A
:10371000C1B24A464046FFF713FF601CC4B2AC4238
:10372000EADBBDE8F08710B56420FEF7D9FDFFF7AE
:103730006FFEAE20FFF7BEFED520FFF7BBFE802058
:10374000FFF7B8FEA820FFF7B5FE3F20FFF7B2FE57
:10375000D320FFF7AFFE0020FFF7ACFE4020FFF7BD
:10376000A9FEA120FFF7A6FEC820FFF7A3FEDA20DE
:10377000FFF7A0FE1220FFF79DFE8120FFF79AFEC3
:10378000CF20FFF797FED920FFF794FEF120FFF737
:1037900091FEDB20FFF78EFE3020FFF78BFEA4208A
:1037A000FFF788FEA620FFF785FE8D2004E00000CD
:1037B0000000024004820008FFF77CFE1420FFF79F
:1037C00079FEAF20FFF776FEFFF7A5FE10BD0000E3
:1037D0003E48006840F020003C4908603C480068D2
:1037E00020F003003A49086008460068086008466F
:1037F000C06820F00300C8600846C06840F00100BF
:10380000C860704710B531481430006840F48040FB
:103810002E49143108602F48006820F00F002D4910
:1038200008600846006840F0040008602A48006804
:1038300040F001002849086027480C38006840F033
:10384000010025490C39086006200321002807DA09
:103850000A07140E214A00F00F031B1FD45403E083
:103860000A07130E1E4A135400BF0620012181408F
:103870004209920002F1E022C2F8001100BF10BD1F
:1038800010B501211248FDF7BDF808B9012010BD9F
:103890000020FCE710480830006800F00100A0B1EB
:1038A0001048007830B91048007818B90F480078EF
:1038B000012802D101200E4908700748083000682D
:1038C00040F0010004490831086070473038024078
:1038D00000100240083801400C3C014018ED00E0A7
:1038E00000E400E03A0000203B0000203C00002003
:1038F0007400002000F1080141604FF0FF31816049
:1039000000F10801C16001610021016070470021E0
:103910000161704742684A6093688B6093685960A0
:103920009160086103685B1C0360704710B5024634
:103930000B685C1C0CB9106907E002F1080000E09C
:103940004068446824689C42FAD944684C604C68DA
:10395000A160886041600A611468641C146010BD35
:1039600001460A69D1E901309860D1E90103586044
:103970005068884201D18868506000200861106852
:10398000401E1060106870472DE9F04105460E4654
:1039900001272C4654B900BF502080F31188BFF393
:1039A0004F8FBFF36F8F00BF00BFFEE7002C42D0E8
:1039B000E06B00283FD04FF0FF31E06BB1FBF0F03F
:1039C000216C884237D303F018FED4E90F12206827
:1039D00001FB0200A0600020A06320686060E06B33
:1039E000401E226C216800FB0211E160FF2084F878
:1039F000440084F845009EB9206908B9012000E020
:103A00000020A8B904F1100002F007FA80B14FF0CD
:103A10008050F6490860BFF34F8FBFF36F8F07E008
:103A200004F11000FFF766FF04F12400FFF762FFC6
:103A300003F00AFE00E000270FB1012000E00020A3
:103A400050B900BF502080F31188BFF34F8FBFF3F0
:103A50006F8F00BF00BFFEE73846BDE8F0812DE95B
:103A6000F04106460D4617469846069C0DB924605F
:103A700000E02760E663256401212046FFF784FF0C
:103A800084F84C80BDE8F0812DE9F84305460E46E8
:103A900017460024E5B1601EB0FBF5F0B04217D325
:103AA00005FB06F010F1510F12D805FB06F808F1DE
:103AB000500003F071FE0446B4B1A14609F150096B
:103AC0003B464A46314628460094FFF7C8FF0BE0C4
:103AD00054B900BF502080F31188BFF34F8FBFF35C
:103AE0006F8F00BF00BFFEE72046BDE8F88370B5CA
:103AF000044603F082FD94F9455010E0606A08B96D
:103B0000012000E0002038B904F1240002F085F91A
:103B100018B102F010FB00E003E0681E45B2002D72
:103B2000ECDC00BFFF2084F8450003F08DFD03F0BE
:103B300064FD94F9445010E0206908B9012000E0C8
:103B4000002048B904F1100002F067F908B102F052
:103B5000F2FA681E45B200E001E0002DECDC00BF87
:103B6000FF2084F8440003F06FFD70BD70B505467A
:103B700003F043FDA86BE96B884201D1012400E00A
:103B8000002403F061FD204670BD2DE9F04104469C
:103B90000F4615464FF00008A66B206C48B9206808
:103BA00000282CD1A06802F064FB80460020A060B1
:103BB00025E07DB93946226C606804F004F8216C78
:103BC000606808446060D4E90101884217D3206826
:103BD000606014E03946226CE06803F0F4FF216C69
:103BE000E068411AE1602168E068884203D2216CF4
:103BF000A068411AE160022D01D106B1761E701C49
:103C0000A0634046BDE8F0812DE9FF4383B006463E
:103C100088461D464FF00009344654B900BF502075
:103C200080F31188BFF34F8FBFF36F8F00BF00BFCA
:103C3000FEE7B8F1000F01D1206C08B9012000E0C7
:103C4000002050B900BF502080F31188BFF34F8F80
:103C5000BFF36F8F00BF00BFFEE7022D02D1E06B04
:103C6000012801D1012000E0002050B900BF502000
:103C700080F31188BFF34F8FBFF36F8F00BF00BF7A
:103C8000FEE702F077FA08B9059808B9012000E0CC
:103C9000002050B900BF502080F31188BFF34F8F30
:103CA000BFF36F8F00BF00BFFEE700BF03F0A5FCAE
:103CB000A06BE16B884201D3022D28D12A464146F0
:103CC0002046FFF762FF0746606A08B9012000E05E
:103CD000002068B904F1240002F09FF888B14FF089
:103CE000805042490860BFF34F8FBFF36F8F08E0E9
:103CF0003FB14FF080503D490860BFF34F8FBFF395
:103D00006F8F03F0A1FC012007B0BDE8F083059898
:103D100018B903F099FC0020F6E7B9F1000F04D1BF
:103D200001A802F0BDF94FF0010903F08DFC01F08C
:103D30001EFA03F062FC94F94400401C10B9002004
:103D400084F8440094F94500401C10B9002084F820
:103D5000450003F079FC05A901A802F0A8F9F0B923
:103D60002046FFF703FFA0B104F11000059901F010
:103D7000C4FF2046FFF7BBFE01F0E3F8002895D111
:103D80004FF0805019490860BFF34F8FBFF36F8F1A
:103D90008CE72046FFF7ABFE01F0D3F886E720461C
:103DA000FFF7A5FE01F0CDF80020ADE710B5044601
:103DB00054B10020A06020600021E16000231A4679
:103DC00019462046FFF720FF10BD2DE9F0410446BB
:103DD00001260027224600210120FFF755FE054657
:103DE0002846FFF7E3FF2846BDE8F08104ED00E038
:103DF00070B505462C4654B900BF502080F3118899
:103E0000BFF34F8FBFF36F8F00BF00BFFEE702F01D
:103E1000A1F9A16888420CD1E068401EE060E0682A
:103E200028B900231A4619462046FFF7EDFE012661
:103E300000E00026304670BD01464A6A22B10A6B96
:103E40001268C2F1050000E00020704770B5054619
:103E500003F0D3FBA86B08B9012400E0002403F0B1
:103E6000F3FB204670BD2DE9F34182B005460027E3
:103E70002C46B84654B900BF502080F31188BFF3D8
:103E80004F8FBFF36F8F00BF00BFFEE7206C08B9F4
:103E9000012000E0002050B900BF502080F31188BD
:103EA000BFF34F8FBFF36F8F00BF00BFFEE702F07D
:103EB00061F908B9039808B9012000E0002050B961
:103EC00000BF502080F31188BFF34F8FBFF36F8F77
:103ED00000BF00BFFEE700BF03F08FFBA66BFEB183
:103EE000701EA063206810B902F0E0FAA06020699B
:103EF00008B9012000E0002060B904F1100001F0D1
:103F00008CFF38B14FF08050F6490860BFF34F8FF7
:103F1000BFF36F8F03F098FB012004B0BDE8F08180
:103F2000039818B903F090FB0020F6E71FB9684624
:103F300002F0B6F8012703F087FB01F018F903F04F
:103F40005CFB94F94400401C10B9002084F8440044
:103F500094F94500401C10B9002084F8450003F096
:103F600073FB03A9684602F0A2F840BB2046FFF7A6
:103F70006DFFF0B1206838B903F03FFBA06802F094
:103F800005F9804603F060FB04F12400039901F079
:103F9000B4FE2046FFF7ABFD00F0D3FF00289BD115
:103FA0004FF08050CF490860BFF34F8FBFF36F8F42
:103FB00092E72046FFF79BFD00F0C3FF8CE7204609
:103FC000FFF795FD00F0BDFF2046FFF73FFF0028FB
:103FD00082D0B8F1000F0BD003F00FFB2046FFF7A3
:103FE0002BFF06463146A06802F0B8F903F02CFB1F
:103FF000002092E72DE9F04106460F46344654B9B9
:1040000000BF502080F31188BFF34F8FBFF36F8F35
:1040100000BF00BFFEE702F09DF8A168884204D10E
:10402000E068401CE060012508E039462046FFF7C3
:104030001AFF054615B1E068401CE0602846BDE85F
:10404000F08170B505460E46002455B1AE4208D841
:10405000022200212846FFF717FD04466CB1A66333
:104060000BE054B900BF502080F31188BFF34F8F8D
:10407000BFF36F8F00BF00BFFEE7204670BD2DE984
:10408000FC5F80468B4691461E46444654B900BFAD
:10409000502080F31188BFF34F8FBFF36F8F00BFA5
:1040A00000BFFEE7BBF1000F01D1206C08B9012071
:1040B00000E0002050B900BF502080F31188BFF30A
:1040C0004F8FBFF36F8F00BF00BFFEE7022E02D1FC
:1040D000E06B012801D1012000E0002050B900BFB1
:1040E000502080F31188BFF34F8FBFF36F8F00BF55
:1040F00000BFFEE703F0DCFA00BF5021EFF31180B0
:1041000081F31188BFF34F8FBFF36F8F00BF054658
:10411000A06BE16B884201D3022E3CD194F945702B
:10412000A06B0190324659462046FFF72EFD781CC1
:1041300088B9606A08B9012000E0002050B904F194
:10414000240001F06AFE28B1B9F1000F02D001206D
:10415000C9F800001CE000BF01F096FC0090009838
:10416000874214D27F2F01D0012000E0002050B9F7
:1041700000BF502080F31188BFF34F8FBFF36F8FC4
:1041800000BF00BFFEE7781C40B284F8450000BFC6
:104190004FF0010A01E04FF0000A00BF85F31188DB
:1041A00000BF5046BDE8FC9F2DE9F05F07468846FA
:1041B0003C4654B900BF502080F31188BFF34F8FA5
:1041C000BFF36F8F00BF00BFFEE7206C08B901206E
:1041D00000E0002050B900BF502080F31188BFF3E9
:1041E0004F8FBFF36F8F00BF00BFFEE7206808B995
:1041F000A06808B9012000E0002050B900BF50209D
:1042000080F31188BFF34F8FBFF36F8F00BF00BFE4
:10421000FEE703F04DFA00BF5021EFF3118081F368
:104220001188BFF34F8FBFF36F8F00BF0546D4F8DF
:1042300038A0E06B504537D994F945600AF1010088
:10424000A063701C88B9606A08B9012000E00020F2
:1042500038BB04F1240001F0E0FD10B3B8F1000F09
:104260001FD00120C8F800001BE000BF01F00CFCCB
:1042700083465E4514D27F2E01D0012000E000204D
:1042800050B900BF502080F31188BFF34F8FBFF3A8
:104290006F8F00BF00BFFEE7701C40B284F845007E
:1042A00000BF4FF0010901E04FF0000900BF85F3A6
:1042B000118800BF4846BDE8F09F70B504460D4622
:1042C000206C70B1216CE0680144E160D4E9021017
:1042D000884201D32168E1602846226CE16803F03E
:1042E00072FC70BD04ED00E02DE9F74183B0054696
:1042F0000E464FF000082C4654B900BF502080F302
:104300001188BFF34F8FBFF36F8F00BF00BFFEE771
:104310000EB9206C08B9012000E0002050B900BFA0
:10432000502080F31188BFF34F8FBFF36F8F00BF12
:1043300000BFFEE701F01EFF08B9059808B901208B
:1043400000E0002050B900BF502080F31188BFF377
:104350004F8FBFF36F8F00BF00BFFEE700BF03F0BA
:104360004CF9A76BF7B131462046FFF7A6FF781E40
:10437000A063206908B9012000E0002060B904F1C1
:10438000100001F04AFD38B14FF08050FC49086040
:10439000BFF34F8FBFF36F8F03F056F9012006B0C4
:1043A000BDE8F081059818B903F04EF90020F6E752
:1043B000B8F1000F04D101A801F072FE4FF001081E
:1043C00003F042F900F0D3FE03F017F994F944002A
:1043D000401C10B9002084F8440094F94500401CAA
:1043E00010B9002084F8450003F02EF905A901A8B2
:1043F00001F05DFEF0B92046FFF728FDA0B104F101
:104400002400059901F079FC2046FFF770FB00F0CD
:1044100098FD0028A3D14FF08050D9490860BFF320
:104420004F8FBFF36F8F9AE72046FFF760FB00F0D6
:1044300088FD94E72046FFF75AFB00F082FD2046F6
:10444000FFF704FD00288AD00020A8E72DE9F743F4
:1044500082B005460E464FF000082C4654B900BF06
:10446000502080F31188BFF34F8FBFF36F8F00BFD1
:1044700000BFFEE70EB9206C08B9012000E0002063
:1044800050B900BF502080F31188BFF34F8FBFF3A6
:104490006F8F00BF00BFFEE701F06CFE08B9049803
:1044A00008B9012000E0002050B900BF502080F37F
:1044B0001188BFF34F8FBFF36F8F00BF00BFFEE7C0
:1044C00000BF03F09AF8D4F83890B9F1000F1ED06D
:1044D000E76831462046FFF7F0FEE760606A08B9FA
:1044E000012000E0002060B904F1240001F095FCF7
:1044F00038B14FF08050A2490860BFF34F8FBFF32F
:104500006F8F03F0A1F8012005B0BDE8F083049897
:1045100018B903F099F80020F6E7B8F1000F04D1BC
:10452000684601F0BDFD4FF0010803F08DF800F082
:104530001EFE03F062F894F94400401C10B90020FC
:1045400084F8440094F94500401C10B9002084F818
:10455000450003F079F804A9684601F0A8FDF0B918
:104560002046FFF773FCA0B104F12400049901F088
:10457000C4FB2046FFF7BBFA00F0E3FC0028A0D103
:104580004FF080507E490860BFF34F8FBFF36F8FAD
:1045900097E72046FFF7ABFA00F0D3FC91E72046FF
:1045A000FFF7A5FA00F0CDFC2046FFF74FFC0028EE
:1045B00087D00020A8E72DE9F84F07468A469046A5
:1045C0003C4654B900BF502080F31188BFF34F8F91
:1045D000BFF36F8F00BF00BFFEE7BAF1000F01D13C
:1045E000206C08B9012000E0002050B900BF502025
:1045F00080F31188BFF34F8FBFF36F8F00BF00BFF1
:10460000FEE703F055F800BF5021EFF3118081F36E
:104610001188BFF34F8FBFF36F8F00BF0546D4F8EB
:1046200038B0BBF1000F3CD094F9446051462046AD
:10463000FFF743FEABF10100A063701C88B920694D
:1046400008B9012000E0002040BB04F1100001F097
:10465000E4FB18B3B8F1000F20D00120C8F8000027
:104660001CE000BF01F010FA00900098864214D2BE
:104670007F2E01D0012000E0002050B900BF502063
:1046800080F31188BFF34F8FBFF36F8F00BF00BF60
:10469000FEE7701C40B284F8440000BF4FF00109EF
:1046A00001E04FF0000900BF85F3118800BF4846C4
:1046B000BDE8F88F2DE9F04706468846344654B9E0
:1046C00000BF502080F31188BFF34F8FBFF36F8F6F
:1046D00000BF00BFFEE7B8F1000F01D1206C08B9A0
:1046E000012000E0002050B900BF502080F3118865
:1046F000BFF34F8FBFF36F8F00BF00BFFEE7206C8B
:1047000008B1012000E0002050B900BF502080F324
:104710001188BFF34F8FBFF36F8F00BF00BFFEE75D
:1047200002F0C6FF00BF5021EFF3118081F3118822
:10473000BFF34F8FBFF36F8F00BF0546A06B48B12B
:10474000D4F80C9041462046FFF7B7FDC4F80C9012
:10475000012700E0002700BF85F3118800BF38461D
:10476000BDE8F08770B5044664B900BF502080F3FF
:104770001188BFF34F8FBFF36F8F00BF00BFFEE7FD
:1047800004ED00E002F039FFA56B02F05DFF284662
:1047900070BD70B50446254655B900BF502080F362
:1047A0001188BFF34F8FBFF36F8F00BF00BFFEE7CD
:1047B00002F023FFD5E90E10461A02F045FF3046FD
:1047C00070BD10B501460A4652B900BF502383F3AD
:1047D0001188BFF34F8FBFF36F8F00BF00BFFEE79D
:1047E000906B10BD014651B900BF502282F3118871
:1047F000BFF34F8FBFF36F8F00BF00BFFEE70020F6
:104800000EE06B4A02EBC00252688A4207D10022D6
:10481000674B43F8302003EBC0035A6002E0401CB2
:104820000828EED300BF704770B50446254655B939
:1048300000BF502080F31188BFF34F8FBFF36F8FFD
:1048400000BF00BFFEE72846FFF7CCFF284603F075
:10485000D8F870BD0146886C704781647047014686
:1048600091F84C0070470146086C70470146C86BD0
:10487000704710B501460A4652B900BF502383F372
:104880001188BFF34F8FBFF36F8F00BF00BFFEE7EC
:10489000936B0BB9012000E0002010BD10B501465C
:1048A0000A4652B900BF502383F31188BFF34F8FDC
:1048B000BFF36F8F00BF00BFFEE7936BD46BA342C3
:1048C00001D1012000E0002010BD30B502460B46AA
:1048D000002152B900BF502484F31188BFF34F8FD9
:1048E000BFF36F8F00BF00BFFEE7BBB1002012E037
:1048F0002F4C04EBC0046468944203D12C4C04EBAD
:10490000C0010AE031B92A4C54F8304014B9284C9F
:1049100004EBC001401C0828EAD300BF09B10B60BA
:104920004A6030BD10B50246002052B900BF502386
:1049300083F31188BFF34F8FBFF36F8F00BF00BFAA
:10494000FEE700210AE01A4B03EBC1035B689342C8
:1049500003D1174B53F8310002E0491C0829F2D368
:1049600000BF10BD2DE9F04105460E4617462C4606
:1049700002F043FE94F94400401C10B9002084F872
:10498000440094F94500401C10B9002084F845000B
:1049900002F05AFEA06B28B93A46314604F12400D1
:1049A00001F00AFA2046FFF7A2F8BDE8F081000006
:1049B000040100202DE9F05F82460F4690469B4699
:1049C0000A9E0C9C4FEA8801A522206B03F040F957
:1049D000A8F10100216B01EB800929F0070909F01A
:1049E000070008B9012000E0002050B900BF5020A6
:1049F00080F31188BFF34F8FBFF36F8F00BF00BFED
:104A0000FEE77FB1002507E0795D04F134004155F0
:104A1000785D00B902E06D1C0A2DF5D300BF0021BE
:104A20003D200155052E01D2012000E0002050B9A3
:104A300000BF502080F31188BFF34F8FBFF36F8FFB
:104A400000BF00BFFEE7052E00D30426E662A66481
:104A5000201DFEF75CFF04F11800FEF758FF2461EB
:104A6000C6F10500A06164625A465146484602F00C
:104A7000E5FC20600B9808B10B980460BDE8F09F3E
:104A80002DE9FF5F0746884616469946DDE90EABDD
:104A9000B00002F081FE054675B1582002F07CFEA0
:104AA00004462CB15821204603F0FCF8256304E0AD
:104AB000284602F0A6FF00E0002454B100204B4637
:104AC00032464146CDE900ABCDE902403846FFF71A
:104AD00071FF204604B0BDE8F09F10B5002407E048
:104AE00004EB8401F64A02EB8100FEF703FF641C2D
:104AF000052CF5D3F348FEF7FDFEF348FEF7FAFE6A
:104B0000F248FEF7F7FEF248FEF7F4FEF148FEF732
:104B1000F1FEEC48F0490860EB48F049086010BD30
:104B200010B5044602F069FDED480068401CEC49F0
:104B30000860EC48006840B9EA480460084600682C
:104B400001280DD1FFF7C9FF0AE0E748006838B92E
:104B5000E4480068C06AE16A884201D8E14804601C
:104B6000E2480068401CE14908600846006820648B
:104B700000BF94F82C1001208840DD4909680843E3
:104B8000DB49086000BFE16A01EB8101CC4A02EB1E
:104B900081014868A0608268E260211D82685160DE
:104BA0008160E16A01EB8101C54A02EB8102626129
:104BB000E16A01EB8101C24A52F82110491CE26A04
:104BC00002EB8202BE4B43F8221000BF00BF02F08E
:104BD0003BFDC548006878B100BFC2480068C06AA4
:104BE000E16A884207D24FF08050C2490860BFF3A3
:104BF0004F8FBFF36F8F00BF10BD2DE9FC5F0646DE
:104C00000F4690469946DDE90CAB4B464246394685
:104C10003046CDE900ABFFF733FF054625B1284606
:104C2000FFF77EFF012401E04FF0FF342046BDE88E
:104C3000FC9F10B50446206B02F0E3FE204602F014
:104C4000E0FE10BDA4480068006808B9012000E03B
:104C5000002020B14FF0FF30A749086005E09E48D2
:104C60000068C0680068A449086070472DE9F041F9
:104C70000546002602F0C1FC15B99A48006800E01C
:104C800028460446201DFEF76BFE88B900BFE06A87
:104C900000EB80008A4951F8200040B994F82C10AC
:104CA000012088409249096881439148016000BF12
:104CB000A06A18B104F11800FEF752FE8B48006894
:104CC000401C8A49086087480068844201D101205D
:104CD00000E0002007468448006858B157B1211D04
:104CE0007B48FEF717FE85480068401C8349086032
:104CF000012606E07A480068401E79490860FFF7FF
:104D0000A1FF02F0A1FC012E02D02046FFF791FF87
:104D100075480068E8B173480068844219D1784842
:104D2000006808B9012000E0002050B900BF502001
:104D300080F31188BFF34F8FBFF36F8F00BF00BFA9
:104D4000FEE74FF080506B490860BFF34F8FBFF311
:104D50006F8FBDE8F0812DE9F0414FF00008684801
:104D6000006800287DD167480068451C65480560DB
:104D70001DBB00BF58480068006808B9012000E06A
:104D8000002050B900BF502080F31188BFF34F8F2F
:104D9000BFF36F8F00BF00BFFEE74F4807684F4863
:104DA00000684D4908604D48076057480068401C3E
:104DB00055490860FFF746FF00BF4F48006885422D
:104DC0007CD300BF44480068006808B9012000E0B7
:104DD000002020B14FF0FF304749086096E03E4880
:104DE0000068C068C4686668B54202D2424806607E
:104DF0008CE000BF6069D4E902128A60D4E9022124
:104E00004A60211D42688A4201D1E1684160002266
:104E100062610168491E016000BFA06AA0B100BFC5
:104E2000A06AD4E907128A60D4E907214A6004F134
:104E3000180142688A4201D1216A41600022A262BF
:104E40000168491E016000BF00BF94F82C100120CA
:104E500088402749096808432549086000BFE16A7E
:104E600000E066E001EB8101154A02EB8101486830
:104E7000A0608268E260211D826851608160E16A01
:104E800001EB81010E4A02EB81026261E16A01EBF2
:104E900081010B4A52F82110491CE26A02EB82029E
:104EA000074B43F8221000BF00BF0E49E06A0968B3
:104EB000C96A884286D94FF0010883E727E00000DD
:104EC00044010020A8010020BC010020D0010020E6
:104ED000E4010020F80100207C0000208000002078
:104EE000880000207800002094000020A40000200A
:104EF0009000002004ED00E0A800002084000020C5
:104F0000B40000208C000020A000002000BFF94861
:104F10000068C06A00EB8000F74951F820000128C2
:104F200001D94FF00108F548006808B14FF00108B9
:104F300004E0F3480068401CF14908604046BDE8C1
:104F4000F0812DE9F0410024002702F056FB0025F6
:104F5000EC48006808B1012000E0002050B900BF13
:104F6000502080F31188BFF34F8FBFF36F8F00BFC6
:104F700000BFFEE7E3480068401EE24908600846BB
:104F8000006800287ED1E048006800287AD064E0FC
:104F9000DE48C068C46800BFA06AD4E907128A600E
:104FA000D4E907214A6004F1180142688A4201D11C
:104FB000216A41600022A2620168491E016000BFAF
:104FC00000BF6069D4E902128A60D4E902214A6014
:104FD000211D42688A4201D1E1684160002262617C
:104FE0000168491E016000BF00BF94F82C10012029
:104FF0008840C74909680843C549086000BFE16A9D
:1050000001EB8101BC4A02EB81014868A060826823
:10501000E260211D826851608160E16A01EB8101DB
:10502000B54A02EB81026261E16A01EB8101B24A99
:1050300052F82110491CE26A02EB8202AE4B43F89F
:10504000221000BF00BFAB49E06A0968C96A884204
:1050500003D90120A94941F82500AC48006808B9E6
:10506000012000E00020002892D00CB1FFF7EAFDFB
:10507000A34806687EB100BFFFF76DFE28B101208E
:105080009E4900E017E041F82500761E002EF3D17E
:1050900000209B490860994850F8250058B1012725
:1050A00000BF9448006838079A490860BFF34F8FE3
:1050B000BFF36F8F00BF02F0C7FA3846BDE8F0813A
:1050C0002DE9F04705460E46934807689348D0F807
:1050D00000809348D0F8009086480068001DFEF7D5
:1050E0003FFC50B98348006890F82C10012088409C
:1050F00087490968814386480160681CE0B9DEB1D0
:1051000000BF884948687B49096888607949826896
:105110000968CA6077490968091D82685160754944
:105120000968091D81607F4A724909684A61114610
:105130000968491C116018E07C196E4800684460D9
:10514000BC4206D26B480168091D4846FEF7EEFBDB
:105150000BE068480168091D4046FEF7E7FB72480E
:105160000068844201D270480460BDE8F087654859
:105170000068401C6349086070472DE9F047044609
:105180000F464FF0000954B900BF502080F311883A
:10519000BFF34F8FBFF36F8F00BF00BFFEE70FB1AC
:1051A000012000E0002050B900BF502080F311889A
:1051B000BFF34F8FBFF36F8F00BF00BFFEE7FFF756
:1051C000D6FF554806684F480068012800D100E026
:1051D000002050B900BF502080F31188BFF34F8FDB
:1051E000BFF36F8F00BF00BFFEE72068C5192068BE
:1051F000B04207D92068A8420BD9B54209D94FF06F
:10520000010906E02068A84201D8B54201D94FF053
:1052100001092560B9F1000F03D0A81B0021FFF799
:105220004FFFFFF78EFE8046B8F1000F07D14FF019
:10523000805038490860BFF34F8FBFF36F8F4846E7
:10524000BDE8F08770B504460025D4B1FFF78FFFA5
:105250002C480068012800D100E0002050B900BFB0
:10526000502080F31188BFF34F8FBFF36F8F00BFC3
:1052700000BFFEE700212046FFF722FFFFF761FE97
:1052800005463DB94FF0805022490860BFF34F8F6B
:10529000BFF36F8F70BD2DE9F04707463E4656B904
:1052A00000BF502080F31188BFF34F8FBFF36F8F83
:1052B00000BF00BFFEE70F480068864201D100240E
:1052C00051E002F09AF97569D6F828801348D0F8B1
:1052D00000901348D0F800A002F0B6F90B488045C2
:1052E00001D101243FE04D4501D055451ED1022496
:1052F00039E0000078000020440100209C000020DC
:1053000098000020B400002088000020D001002078
:105310009000002004ED00E08C0000207C000020C4
:1053200080000020F8010020A8000020F9488542F4
:1053300012D1B06A70B90324002007E006F15401CD
:10534000095C012901D1022402E0401C0128F5DB9F
:1053500000BF08E0022406E0EF48854200D00DB906
:10536000042400E001242046BDE8F08770B504461F
:1053700002F043F914B9E948006800E02046064607
:10538000F56A02F061F9284670BD2DE9F041054645
:1053900002F08EF900BF5021EFF3118081F31188E4
:1053A000BFF34F8FBFF36F8F00BF044615B9DB48C3
:1053B000006800E028460746FE6A00BF84F31188B3
:1053C00000BF3046BDE8F08170B5044602F015F923
:1053D00014B9D248006800E020460646B56C02F0D9
:1053E00033F9284670BD2DE9F041054602F060F919
:1053F00000BF5021EFF3118081F31188BFF34F8F6D
:10540000BFF36F8F00BF044615B9C448006800E0C1
:1054100028460746BE6C00BF84F3118800BF3046A3
:10542000BDE8F0812DE9F04780460D464FF00009B8
:10543000052D01D2012000E0002050B900BF50200E
:1054400080F31188BFF34F8FBFF36F8F00BF00BF92
:10545000FEE7052D00D3042502F0CFF8B8F1000FC8
:1054600002D1AE48006800E040460446A66CAE4259
:105470007CD0B5420BD9A9480068844211D0A74816
:105480000068C06AA8420CD24FF0010909E0A348A5
:105490000068844201D1012000E00020012800D1F1
:1054A0008146E76AE16AA06C884202D0E06AA842BD
:1054B00000D2E562A564A06900F0004010B9C5F112
:1054C0000500A06107EB8701954A02EB8101606945
:1054D000884201D1012000E00020C8B3201DFEF762
:1054E0003FFA30B90120B8408E49096881438D48A0
:1054F000016000BF94F82C10012088408949096898
:1055000008438849086000BFE16A01EB8101844AD1
:1055100002EB81014868A0608268E260211D826818
:1055200051608160E16A01EB81017D4A02EB8102F9
:105530006261E16A01EB8101794A52F82110491C4C
:10554000E26A02EB8202764B43F8221000BF00BFF2
:10555000B9F1000F09D000BF4FF0805072490860C8
:10556000BFF34F8FBFF36F8F00BF00BF02F06CF827
:10557000BDE8F0876D48006818B101206C490860EB
:1055800036E000206A49086000BF66480068B0FA4B
:1055900080F0C0F11F0101EB8100614A52F8200048
:1055A00008B1012000E0002050B900BF502080F376
:1055B0001188BFF34F8FBFF36F8F00BF00BFFEE7AF
:1055C00000BF01EB8102564B03EB82004268526838
:1055D000426000F108024368934201D1C268426010
:1055E0004268D2684D4B1A6000BF00BF1846006881
:1055F000704770B5054602F000F815B947480068D5
:1056000000E028460446201DFEF7AAF988B900BF2D
:10561000E06A00EB8000424951F8200040B994F85C
:105620002C10012088403F49096881433D480160B2
:1056300000BFA06A18B104F11800FEF791F9211D0E
:105640003448FEF767F9002009E004F15401095CD1
:10565000012903D1002204F154010A54401C0128FD
:10566000F3DB01F0F1FF3348006828B101F0C5FF1A
:10567000FFF7E8FA01F0E8FF28480068844229D1E2
:105680002C480068D0B12948006808B9012000E022
:10569000002050B900BF502080F31188BFF34F8F16
:1056A000BFF36F8F00BF00BFFEE74FF080501E4971
:1056B0000860BFF34F8FBFF36F8F0BE0154806688C
:1056C0001D480068864203D100201449086001E0AB
:1056D000FFF750FF70BD10B502460023114652B9C6
:1056E00000BF502080F31188BFF34F8FBFF36F8F3F
:1056F00000BF00BFFEE7074C4869A04201D101206E
:1057000000E0002098B30D4C886AA04218D1012017
:1057100017E00000F8010020E401002078000020DC
:10572000440100209000002004ED00E0B4000020BF
:105730009C0000209400002088000020D001002060
:105740000020A0B9886A08B9012000E0002070B1EB
:105750000123002007E001F15404245C012C01D155
:10576000002302E0401C0128F5DB00BF00BF184603
:1057700010BD70B505462C4655B900BF502080F3CA
:105780001188BFF34F8FBFF36F8F00BF00BFFEE7DD
:10579000F848006884424CD0002C4AD001F02DFF1C
:1057A0002046FFF798FF002841D0201DFEF7D8F8CB
:1057B00000BF94F82C1001208840EF490968084385
:1057C000ED49086000BFE16A01EB8101EB4A02EBA1
:1057D00081014868A0608268E260211D8268516092
:1057E0008160E16A01EB8101E44A02EB81026261BE
:1057F000E16A01EB8101E14A52F82110491CE26A99
:1058000002EB8202DD4B43F8221000BF00BF00BF55
:10581000D8480068C06AE16A884207D24FF08050D9
:10582000D7490860BFF34F8FBFF36F8F00BF01F000
:105830000BFF70BD2DE9F04106460027344656B9EE
:1058400000BF502080F31188BFF34F8FBFF36F8FDD
:1058500000BF00BFFEE701F02BFF00BF5021EFF3B8
:10586000118081F31188BFF34F8FBFF36F8F00BF9B
:1058700005462046FFF72FFF002844D0C1480068A6
:1058800000283BD1BB49E06A0968C96A884203D94C
:1058900001270120BC490860201DFEF761F800BF08
:1058A00094F82C1001208840B34909680843B24994
:1058B000086000BFE16A01EB8101B04A02EB81019F
:1058C0004868A0608268E260211D82685160816042
:1058D000E16A01EB8101A94A02EB81026261E16A9E
:1058E00001EB8101A54A52F82110491CE26A02EB42
:1058F0008202A24B43F8221000BF04E004F1180119
:10590000A248FEF707F800BF85F3118800BF3846AC
:10591000BDE8F08110B516E001F06FFE9C48C0684C
:10592000C468201DFEF71CF89A480068401E99497B
:10593000086099480068401E9749086001F084FE9D
:105940002046FFF776F9944800680028E4D110BD9E
:1059500000BFFFF7DFFF894800680128F9D94FF041
:10596000805087490860BFF34F8FBFF36F8FF0E718
:10597000F0B585B001260027002408E087A0005D6F
:1059800002A9085502A8005D00B902E0641C0A2CB7
:10599000F4DB00BF002510E0824F834800EB850058
:1059A00000210B468222CDE9001002A93846FFF7FC
:1059B00024F9064606B902E06D1C012DECDB00BFA0
:1059C000304605B0F0BD10B5FFF7D2FF0446012CFC
:1059D00002D101F02BFB0446012C15D100BF502051
:1059E00080F31188BFF34F8FBFF36F8F00BF4FF06D
:1059F000FF306E49086001206D49086000206D4944
:105A0000086001F040FD10E0601C08B1012000E0DA
:105A1000002050B900BF502080F31188BFF34F8F92
:105A2000BFF36F8F00BF00BFFEE76348006810BD83
:105A300070B501F0FEFB0546FFF718F9002405E0FC
:105A4000594951F82400FFF711F9641C012CF7DBC8
:105A5000FFF760FF00BF502080F31188BFF34F8F26
:105A6000BFF36F8F00BF00205149086001F0B0FD07
:105A700070BD50490868704770B501F019FE0025E7
:105A80004C480468204670BD424800687047014693
:105A900011B93848006800E00846024652B900BF14
:105AA000502080F31188BFF34F8FBFF36F8F00BF7B
:105AB00000BFFEE702F1340070470146002001E01C
:105AC000491C401C0A78A52AFAD0800870472DE9A5
:105AD000F04107460C4690461E4617B92548006817
